:0E09B4007F887E131209C27590027F887E1321
:1009C200E4FDFCD3ED9FEE6480F8EC648098500760
:1009D2000DBD00010C80ECE4FFFE0FBF00010EEF25
:0509E20064064E70F5F3
:0109E70022ED
:10080000E4FBFAEB64024A60607590011209B4756A
:1008100090041209BE7590081209BE759010120955
:10082000BE7590201209BE7590401209BE75908069
:100830007FE87E031209C27590801209BE75904050
:100840001209BE7590201209BE7590101209BE756E
:1008500090081209BE7590041209B475900112092E
:10086000BE0BBB00010A020803E4FAFB1209BE75C5
:1008700090187F7C7E151209C27590247FDC7E055E
:100880001209C27590427F7C7E151209C2759011C3
:100890007F7C7E151209C27590117F7C7E1512092E
:1008A000C27590427F7C7E151209C27590247F7CB0
:1008B0007E151209C27590187F7C7E151209C20B35
:1008C000BB00010AEB64024A70A2E4FAFB1209BE03
:1008D0007590181209BE75903C1209BE75907E1273
:1008E00009BE7590FF1209BEE4F5901209BE75901D
:1008F000811209BE7590C31209BE7590E71209BE38
:100900007590FF1209BE0BBB00010AEB64024A702E
:10091000BC7FB87E0B1209C27590207FB87E0B1287
:1009200009C27590017F487E0D1209C27590047F3F
:10093000487E0D1209C27590807F487E0D1209C253
:100940007590047F487E0D1209C27590027F487E23
:100950000D1209C27590107F487E0D1209C2759064
:10096000407F487E0D1209C27590807F487E0D122F
:1009700009C27590087F487E0D1209C27590047FE8
:10098000487E0D1209C27590017F487E0D1209C282
:100990007590107F487E0D1209C27590807F487E49
:1009A0000D1209C27590207F487E0D1209C2E4FA2B
:0409B000FB0208033B
:030000000209E80A
:0C09E800787FE4F6D8FD75810702080056
:00000001FF
